:100000000C9417010C944C140C9425140C94FE13AE
:100010000C94D7130C943F010C943F010C94B01333
:100020000C943F010C94CB110C9473140C94E214B7
:100030000C943F010C943F010C943F010C943F0140
:100040000C943F010C943F010C943F010C943F0130
:100050000C943F010C943F010C943F010C946613E7
:100060000C943F010C943A170C9414170C943F0114
:100070000C943F010C943F010C943F010C943F0100
:100080000C943F010C943F010C943F010C943F01F0
:100090000C9447120C943F010C943F010C943F01C7
:1000A0000C943F010C946C170C943F01084AD73B09
:1000B0003BCE016E84BCBFFDC12F3D6C74319ABD37
:1000C00056833DDA3D00C77F11BED9E4BB4C3E915B
:1000D0006BAAAABE000000803F00000000002300C1
:1000E000260029002C002F00080B0002020200004D
:1000F000090400000102020000052400100105248B
:1001000001010104240206052406000107058103FC
:1001100010004009040100020A0000000705020265
:100120004000000705830240000004030904120197
:100130000002EF020140FB1F002300010102030146
:10014000506F6C6F6C7520436F72706F7261746961
:100150006F6E00506F6C6F6C7520412D537461721F
:100160002033325534004E6F7420616E20696E74F6
:100170006572727570742070696E210041747461CB
:100180006368696E672050435F49535220746F2043
:100190005043494E5400417474616368696E67202E
:1001A00049535200070605040100080A0B0C0D090B
:1001B00000000000240027002A002D00300000006D
:1001C0000000250028002B002E0031000404040448
:1001D00004030405020202020403020202020606EC
:1001E00006060606040402020204040408020110C2
:1001F0004080401020408040800802040180402060
:100200001002011080102040402000000002000970
:100210000F0000030401000C0000000000000000BB
:1002200000000000000000000000CB17C3171124DD
:100230001FBECFEFDAE0DEBFCDBF27E0A2EDB3E017
:1002400001C01D92A637B207E1F713E0A0E0B1E0CC
:10025000E2E2F6E502C005900D92A23DB107D9F7A2
:1002600011E0C6E1D1E004C02197FE010E942F27D2
:10027000C531D107C9F70E948D190C94042B0C9439
:10028000000090916F0480916E042FEF3FEF98175C
:1002900048F4E92FF0E0E25BFB4F208130E09F5F04
:1002A00090936F04C901089590916F0480916E043A
:1002B0002FEF3FEF981748F4E92FF0E0E25BFB4F98
:1002C000208130E09F5F90936F04C9010895809171
:1002D0006E0490916F04891B990B08958F929F92E1
:1002E000AF92BF92CF92DF92EF92FF924B015C01EF
:1002F000CA01B90120914B0630914C0640914D0640
:1003000050914E060E94F5256B017C01A5019401D8
:1003100060914706709148068091490690914A067F
:100320000E94F5256093F0057093F1058093F20526
:100330009093F3058091E3058130B1F01092F805B8
:100340001092F9051092FA051092FB05F89480912D
:1003500004069091050678942091020630910306D8
:10036000909303068093020681E08093E305C09298
:10037000C905D092CA05E092CB05F092CC058091D8
:10038000BC058130B1F01092D1051092D2051092C7
:10039000D3051092D405F8948091DD059091DE0587
:1003A00078942091DB053091DC059093DC058093F7
:1003B000DB0581E08093BC05FF90EF90DF90CF904C
:1003C000BF90AF909F908F9008954F925F926F92E1
:1003D0007F928F929F92AF92BF92CF92DF92EF92D5
:1003E000FF926B017C01CA01B90120914306309153
:1003F000440640914506509146060E94F5254B0162
:100400005C01A70196010E944A272B013C01A5012E
:100410009401C701B6010E944927A3019201FF90F0
:10042000EF90DF90CF90BF90AF909F908F907F9094
:100430006F905F904F900C946E0120912507309142
:100440002607809121079091220740911C074111B6
:100450001BC02817390759F46091270770912807A6
:10046000409123075091240764177507F9F4821B04
:10047000930B1816190664F1892B69F580912D07E5
:10048000082E000C990B089541E0E0912707F091A8
:1004900028076091230770912407E617F70709F4EE
:1004A00040E02817390719F7413009F780912307F1
:1004B000909124072091270730912807821B930BE6
:1004C000181619065CF0892BC9F283E090E00895B4
:1004D00090E080E0089582E090E0089581E090E06F
:1004E0000895FC0180914D04882311F13FB7F894E1
:1004F00082E08093E9002091F200822F90E01816AC
:10050000190614F481E090E0882339F0289844E635
:1005100040934C044091F1004083222339F0209114
:10052000F200211103C02BE62093E8003FBF08959D
:100530008FEF9FEF08952FB7F89483E08093E90041
:100540009091E800892F807295FF04C09091F2008D
:1005500080E4891B2FBF08953FB131702CB126FB79
:10056000222720F92327EAEBF5E085A146A163A124
:1005700074A1082E000C990B8327042E000C550B38
:100580004227841B950B860F971F94A383A325A353
:1005900036A30895CF93DF938CB1482F50E0559543
:1005A00047955595479593B1892F90E024E095950F
:1005B00087952A95E1F784279527E1EEF5E065A177
:1005C000A6A1C3A1D4A19A0121703327062E000C45
:1005D000770B26273727BC01617077270A2E000C7E
:1005E000BB0B6A277B27261B370B2C0F3D1F34A321
:1005F00023A3817085A3417046A3DF91CF91089515
:10060000F89441E040936800ABE6B0E09C91E82F9D
:10061000F0E021E030E001C0220F8A95EAF7892F4F
:10062000822B8C93EE0FFF1FE45CFB4F7183608382
:100630004BBB9091C004822F809589238093C00486
:1006400083B19091C0048223892B8093C004789455
:10065000089520911704260F3327331F21323105C7
:10066000ECF420919604FC0190E080E0243069F0E5
:1006700082E00895A09117042191AC014B505C4F8A
:10068000A40FB52FB11D2C930196861798F3809176
:100690001704680F6093170480E0089581E00895BF
:1006A000089508950895E0916F0480916E04E8170D
:1006B00030F4F0E0E25BFB4F808190E008958FEF33
:1006C0009FEF0895CF92DF92EF92FF920F931F93C7
:1006D000CF93DF937C01CB018A0120919C042223DC
:1006E00089F0EB016B01C40ED51ECC15DD0569F058
:1006F0006991D701ED91FC910190F081E02DC70146
:100700000995F3CF642F0E942903C801DF91CF918F
:100710001F910F91FF90EF90DF90CF900895CF93AE
:10072000DF931F92CDB7DEB7698320919C0422230B
:10073000F9F02091BF04203258F021E030E0FC01B4
:100740003383228390E080E00F90DF91CF91089572
:1007500080919D04E82FF0E0E256FB4F9981908351
:100760008F5F80939D048093BF0481E090E0ECCF85
:1007700061E0CE0101960E942903F7CF8091EC033E
:1007800081110DC082E08093E80384E08093E90347
:100790001092EB031092EA0381E08093EC0388EE61
:1007A00093E0089581508F3008F047C0E82FF0E0C3
:1007B000E452FC4F0C942F27F903FD03EB03F103E4
:1007C000F5031D041D041D04000406040A040E04A0
:1007D00014041D041804809180008F77809380009A
:1007E0000895809180008F7DF9CF80918000877F70
:1007F000F5CF84B58F7784BD089584B58F7DFBCF09
:10080000809190008F778093900008958091900060
:100810008F7DF9CF80919000877FF5CF8091C000C8
:100820008F778093C00008958091C0008F7DF9CFAD
:100830008091C200877F8093C20008951F93CF9359
:10084000DF93282F30E0F901E65FFD4F8491F90135
:10085000E551FE4FD491F901E453FE4FC491CC23EE
:10086000A9F0162F81110E94D203EC2FF0E0EE0FB9
:10087000FF1FE254FE4FA591B4918FB7F894EC910D
:10088000111108C0D095DE23DC938FBFDF91CF918B
:100890001F910895DE2BF8CF1092960481E080938B
:1008A00095041092700461E082E00E941E0461E0F1
:1008B00083E00E941E04E9EBF0E080818E7F80835C
:1008C00080818D7F808388E48093B80085E4809365
:1008D000BC000895CF93DF9391E09093F4038823B5
:1008E000B9F0C091B800D091BA008091BC008A7B69
:1008F0008093BC0060E082E00E941E0460E083E020
:100900000E941E040E944C04D093BA00C093B80009
:10091000DF91CF910895CF93DF9390E0FC01E551F3
:10092000FE4F249184539E4FFC0184918823D1F083
:1009300090E0880F991FFC01E055FE4FA591B491FE
:10094000FC01E254FE4FC591D49161110EC09FB7D6
:10095000F8948C91E22FE0958E238C932881E223EA
:10096000E8839FBFDF91CF9108958FB7F894EC9102
:10097000E22BEC938FBFF6CF823108F08251E82F43
:10098000F0E0EC55FE4FE49190917B008E2F880FA4
:10099000880F80729F7D892B80937B00E770E064D5
:1009A000E0937C0080917A00806480937A0080914B
:1009B0007A0086FDFCCF80917800909179000895AF
:1009C0004F925F926F927F928F929F92AF92BF925F
:1009D000CF92DF92EF92FF920F931F93CF93DF930B
:1009E0000BE316E0F801808D0E94BC045C01F80165
:1009F00087890E94BC04CFEFD3E0BE01681B790B4E
:100A0000072E000C880B990B0E9496259B01AC01C8
:100A10000E944A276B017C01BE016A197B09072EDF
:100A2000000C880B990B0E9496259B01AC01C70115
:100A3000B6010E944A276B017C01F80186890E9459
:100A4000BC044C01F801818D0E94BC045C01F801DA
:100A5000828D0E94BC04BE01681B790B072E000C1E
:100A6000880B990B0E9496259B01AC010E944A2796
:100A70002B013C01BE016A197B09072E000C880B73
:100A8000990B0E9496259B01AC01C301B2010E9403
:100A90004A272B013C01F801838D0E94BC048C0184
:100AA000BE0168197909072E000C880B990B0E946A
:100AB000962520E030E040E450E40E94F525A701AF
:100AC00096010E944A270E949A286B01BE01601B72
:100AD000710B072E000C880B990B0E94962520E0C5
:100AE00030E040E450E40E94F525A30192010E9409
:100AF0004A270E949A28C601861B970BDF91CF9147
:100B00001F910F91FF90EF90DF90CF90BF90AF902B
:100B10009F908F907F906F905F904F9008953FB718
:100B2000F8948091E4039091E503A091E603B091DD
:100B3000E70326B5A89B05C02F3F19F00196A11D1C
:100B4000B11D3FBFBA2FA92F982F8827BC01CD0117
:100B5000620F711D811D911D42E0660F771F881F76
:100B6000991F4A95D1F70895CF92DF92EF92FF92A5
:100B70000F931F93CF93DF93D091BF0481E0D132C5
:100B800008F09CC0C091BE040E948F056B017C01DF
:100B90008091960481116CC082E08093960481E07C
:100BA000809395048FEF8093940410929304D093D4
:100BB0009204AEE9B4E0E2E7F4E080E0D8138DC03F
:100BC0001092710480917104CC0FC82BC0937104F2
:100BD00080917004813009F084C0109270040E94EA
:100BE0008F056B017C01809171048093BB00809123
:100BF000980490919904A0919A04B0919B04892B38
:100C00008A2B8B2BA1F00E948F05009198041091E4
:100C1000990420919A0430919B046C197D098E09E6
:100C20009F09061717072807390708F442C0809163
:100C3000BC0083FDD8CF85EC8093BC000E948F055B
:100C40006B017C0180919604823009F44CC0809144
:100C500094048F3F09F469C080919404803209F4B0
:100C600066C080919404803309F463C084E026C098
:100C70008091980490919904A0919A04B0919B045A
:100C8000892B8A2B8B2B09F483CF0E948F0500912F
:100C900098041091990420919A0430919B046C1946
:100CA0007D098E099F09061717072807390708F0DD
:100CB0006FCF809197040E946A0485E010929D0492
:100CC0001092BF0410929C04DF91CF911F910F915D
:100CD000FF90EF90DF90CF9008959D9191938F5F5B
:100CE0006DCF85EEA9CF8091980490919904A09141
:100CF0009A04B0919B04892B8A2B8B2B09F4A2CFE9
:100D00000E948F05009198041091990420919A04F3
:100D100030919B046C197D098E099F0906171707EE
:100D20002807390708F08ECFC4CF80E0C7CF82E014
:100D3000C5CF83E0C3CFCF93C62F9091CF0621E0DC
:100D400020939C049093BE0410929D041092BF04C3
:100D5000682F81EC94E00E948F036C2F81EC94E06B
:100D60000E948F030E94B4058093E306CF910895FB
:100D70008F929F92AF92BF92CF92DF92EF92FF92AB
:100D80000F931F93CF93DF93D82FC62F142F613269
:100D900008F09CC00E948F056B017C018091960435
:100DA00081116FC081E080939604109395049FEFAA
:100DB00090939404109293049C0F909392048093C8
:100DC000710480917104DD0FD82BD0937104809150
:100DD0007004813009F07CC0109270040E948F056D
:100DE0006B017C01809171048093BB008091980419
:100DF00090919904A0919A04B0919B04892B8A2B1D
:100E00008B2BA1F00E948F050091980410919904FA
:100E100020919A0430919B046C197D098E099F09D9
:100E2000061717072807390708F44CC08091BC0043
:100E300083FDD8CF85EC8093BC000E948F056B01A9
:100E40007C0180919604813009F444C08091930420
:100E50008C1710F4C0919304E2E7F4E0AEE4B4E040
:100E600080E08C1359C08C2FDF91CF911F910F918F
:100E7000FF90EF90DF90CF90BF90AF909F908F90BA
:100E800008958091980490919904A0919A04B0914A
:100E90009B04892B8A2B8B2B09F480CF0E948F0512
:100EA0008090980490909904A0909A04B0909B042C
:100EB0006C197D098E099F0986169706A806B90642
:100EC00008F06CCF809197040E946A04C0E0CBCFF9
:100ED00085EEB1CF8091980490919904A0919A04E5
:100EE000B0919B04892B8A2B8B2B09F4AACF0E94EB
:100EF0008F05009198041091990420919A043091E3
:100F00009B046C197D098E099F090617170728078E
:100F1000390708F096CFD6CF91919D938F5FA1CFDF
:100F2000CF92DF92EF92FF920E948F056B017C01BE
:100F30000E948F056C197D098E099F09683E7340D8
:100F400081059105A8F3FF90EF90DF90CF90089571
:100F50002FB7F8946091E0037091E1038091E20370
:100F60009091E3032FBF089508954091D4035091C9
:100F7000D5032091D2033091D30342175307B4F421
:100F80009091E8009570E1F39091E80092FD19C00E
:100F90008093F1008091D4039091D50301968F73D3
:100FA0009927892B19F48EEF8093E8008091D40360
:100FB0009091D50301969093D5038093D40381E05B
:100FC000089580E00895EF92FF920F931F93CF93BF
:100FD000DF93F82E192FE62E042F81E0860F880F5D
:100FE0000E94B50783E00E94B507CF2DD12FEC0EEC
:100FF000FD2EF11CCE15DF05B9F007FF13C0FE0171
:1010000084910E94B507182F80E00E94B5078123C4
:1010100021968111EFCFDF91CF911F910F91FF901A
:10102000EF9008958881EDCF81E0F5CFDF92EF92C8
:10103000FF920F931F93CF93DF93D82E8A01EB017A
:101040007B01E40EF51ECE15DF0559F0D7FE12C068
:10105000FE0184910E94B50721968111F4CF0FEF14
:101060001FEFC801DF91CF911F910F91FF90EF907B
:10107000DF9008958881EECF0F931F93CF93DF9376
:101080001F92CDB7DEB782E0898342E450E068EE7C
:1010900070E080E80E9416080E94BE03DC011296F0
:1010A0000D911C910115110589F0D801ED91FC916C
:1010B0000280F381E02DBE016F5F7F4FC80109956B
:1010C00097FD04C0F80100851185ECCF89810F9050
:1010D000DF91CF911F910F910895615030F02091D1
:1010E000F100FC0120830196F8CF289884E68093D4
:1010F0004C040895AF92BF92CF92DF92EF92FF928D
:101100000F931F93CF93DF936C017B018B01040F2F
:10111000151FEB015E01AE18BF08C017D10759F0CB
:101120006991D601ED91FC910190F081E02DC6010D
:101130000995892B79F7C501DF91CF911F910F9107
:10114000FF90EF90DF90CF90BF90AF90089590E028
:1011500080E00895FC01538D448D252F30E0842FCD
:1011600090E0821B930B541710F0CF9608950197CF
:101170000895FC01918D828D981761F0A28DAE0FBC
:10118000BF2FB11D5D968C91928D9F5F9F73928F43
:1011900090E008958FEF9FEF0895FC01918D828D6F
:1011A000981731F0828DE80FF11D858D90E008953C
:1011B0008FEF9FEF0895FC01918D228D892F90E094
:1011C000805C9F4F821B91098F73992708958DEC46
:1011D00094E00E94DB0821E0892B09F420E0822FB3
:1011E000089580E090E0892B29F00E94E7088111A2
:1011F0000C9400000895FC01A48DA80FB92FB11D17
:10120000A35ABF4F2C91848D90E001968F7399273C
:10121000848FA689B7892C93A089B1898C91827417
:101220008C93938D848D981306C00288F389E02DEA
:1012300080818F7D80830895EF92FF920F931F939B
:10124000CF93DF93EC0181E0888F9B8D8C8D981379
:1012500019C0E889F989808185FF14C09FB7F89487
:10126000EE89FF896083E889F989808182748083AF
:101270009FBF81E090E0DF91CF911F910F91FF9090
:10128000EF900895F62E0B8D10E00F5F1F4F0F7338
:101290001127E02E8C8D8E110CC00FB607FCFACFF3
:1012A000E889F989808185FFF5CFCE010E94FB088E
:1012B000F1CFEB8DEC0FFD2FF11DE35AFF4FF082C4
:1012C0009FB7F8940B8FEA89FB8980818062CFCF2A
:1012D000CF93DF93EC01888D8823B9F0AA89BB896D
:1012E000E889F9898C9185FD03C0808186FD0DC058
:1012F0000FB607FCF7CF8C9185FFF2CF808185FF79
:10130000EDCFCE010E94FB08E9CFDF91CF91089588
:101310008F929F92AF92BF92CF92DF92EF92FF9205
:101320000F931F93CF93DF936C017B018A01809110
:101330000B01882309F458C080914D04882309F4D7
:1013400053C08091D80380FF05C08091E000826087
:101350008093E000E801B12C8AEFA82E93E0892E5B
:101360002AE3922E209711F4BB20B9F10E949B0230
:10137000811106C0AA94AA20B9F10E949007F2CF69
:101380008C171D0611F00CF08C2F9FB7F8948092EB
:10139000E9002091E80025FD02C09FBFE3CF282F80
:1013A00030E0C21BD30BF701815020F041914093F4
:1013B000F100FACFE20EF31EBB2021F09092E8007C
:1013C000B12CEBCF8091E80085FDE7CF9092E8004B
:1013D000BB24B394209709F3F3CF5D9884E6809300
:1013E000D703101611063CF081E090E0F6019383DC
:1013F000828310E000E0C801DF91CF911F910F912F
:10140000FF90EF90DF90CF90BF90AF909F908F9024
:101410000895FC0144815581608171818AE695E0DF
:101420000C948809CF93DF931F92CDB7DEB7698301
:10143000DC01ED91FC910280F381E02D41E050E070
:10144000BE016F5F7F4F09950F90DF91CF91089597
:101450000F931F93CF93DF938C01D0E0C0E0F8018E
:10146000EC0FFD1F6491662341F08AE695E00E942F
:10147000120A892B11F02196F2CFCE01DF91CF9184
:101480001F910F91089583E08093E9008091F2000D
:10149000882319F08AE38093E80008950E949B0254
:1014A00090E00895CF93DF931F92CDB7DEB7FC0194
:1014B0008485958597FD08C02FEF3FEF35872487FA
:1014C0000F90DF91CF910895CE0101960E94710295
:1014D000019719F4898190E0F3CF8FEF9FEFF0CF60
:1014E0000F931F93CF93DF931F92CDB7DEB78C017D
:1014F000FC018485958597FF0BC0CE0101960E9463
:101500007102019771F4898190E0F80195878487D1
:10151000F801848595850F90DF91CF911F910F91F0
:1015200008958FEF9FEFF1CFFC018485958597FD9E
:101530000BC09FB7F89482E08093E9008091F2009D
:101540009FBF90E0019608959FB7F89482E0809342
:10155000E9008091F2009FBF90E008950F931F93E0
:10156000CF93DF93EC018B018F81811107C0E8815C
:10157000F9810190F081E02DCE0109958A819B814E
:101580000817190730F08C819D810817190708F496
:10159000C801880F991F0197909399008093980034
:1015A000DF91CF911F910F910895DC01F894E0E94C
:1015B000F0E090819F779083789417961C9208951D
:1015C000CF93DF93EC0161E085E00E948B04F894F7
:1015D00082E8809390008AE1809391008FE39CE9F8
:1015E000909397008093960088EB9BE090939900EE
:1015F00080939800789481E08F83DF91CF91089554
:1016000020E077FF04C071956195710921E0FC012C
:10161000878D90A1681779070CF4CB01222339F04C
:101620002A9A229A90938B0080938A0008952A9890
:10163000F8CF20E077FF04C071956195710921E032
:10164000FC01878D90A1681779070CF4CB01222348
:1016500039F0299A219A90938900809388000895FF
:101660002998F8CF1092E30570E060E081EE95E0F4
:101670000E94000B1092BC0570E060E08AEB95E0E0
:101680000C94190BCF92DF92EF92FF920F931F935E
:10169000CF93DF930E948F056B017C01209123067D
:1016A00030E0F901E65FFD4F8491F901E551FE4F0D
:1016B000D491F901E453FE4FC491CC2309F45FC0E7
:1016C00081110E94D203EC2FF0E0EE0FFF1FE652D3
:1016D000FF4FA591B491EC91DE2309F450C0C09264
:1016E0003306D0923406E0923506F09236064091E9
:1016F000330650913406609135067091360680911C
:101700002F0690913006A0913106B0913206481B09
:10171000590B6A0B7B0B8091330690913406A09194
:101720003506B0913606C0903706D0903806E09066
:101730003906F0903A060091330610913406209154
:1017400035063091360600933706109338062093FD
:10175000390630933A068A019B010553114221094B
:101760003109073E134021053105D0F410922E06B1
:1017700081E090E0909325068093240608C0C092F3
:101780002F06D0923006E0923106F0923206DF91B9
:10179000CF911F910F91FF90EF90DF90CF90089520
:1017A000445F514061097109493C5105610571056A
:1017B00090F085E090E090932506809324068FEFCB
:1017C0009FEFDC0180932A0690932B06A0932C06B2
:1017D000B0932D06DCCF8C199D09AE09BF0920916D
:1017E0002406309125062130310509F056C0AC01A0
:1017F000BD01415C524161097109433F514061059E
:10180000710558F410922A0610922B0610922C069D
:1018100010922D0683E090E0ADCF8D589A40A1093B
:10182000B10987359240A105B10508F0B0CF82E03B
:1018300090E0909325068093240640912A065091CB
:101840002B0660912C0670912D0680912A069091AE
:101850002B06A0912C06B0912D06892F9A2FAB2F25
:10186000BB2784279527A627B72788279927BB2733
:101870000097AF4FB10531F085E090E090932506D9
:10188000809324060E94A80760932606709327067B
:1018900080932806909329067ACF209124063091D0
:1018A00025062330310509F072CFAC01BD01455842
:1018B0005340610971094F3851406105710560F568
:1018C00080912E068F5F80932E0680912E068032A7
:1018D00009F05DCF40912A0650912B0660912C06AD
:1018E00070912D0680912A0690912B06A0912C06CE
:1018F000B0912D06892F9A2FAB2FBB2784279527D0
:10190000A627B72788279927BB270097AF4FB10590
:10191000A9F185E090E02ECF815D9740A109B10942
:10192000833F9140A105B10510F520912E0640910D
:101930002A0650912B0660912C0670912D0681E0AD
:1019400090E0A0E0B0E004C0880F991FAA1FBB1F61
:101950002A95D2F7840F951FA61FB71F80932A06DA
:1019600090932B06A0932C06B0932D06A9CF85E06B
:1019700090E09093250680932406A7CF84E090E022
:101980007DCF8F929F92AF92BF92CF92DF92EF92D4
:10199000FF920F931F93CF93DF93CDB7DEB76A9774
:1019A0000FB6F894DEBF0FBECDBF83EE93E0019774
:1019B000F1F741E06AE182E10E94B80610926F04FB
:1019C00080936E048A3109F0DEC08E010F5F1F4FD5
:1019D0006E018BE1C80ED11C78010E945401F70101
:1019E00081937F01CE16DF06C1F798012A5E3F4F33
:1019F00050E040E0F8018581948189279827892764
:101A0000480F591F0E5F1F4F2017310799F78C8120
:101A100090E0982F882721E030E08417950711F097
:101A200030E020E08B81282B232B09F4ACC08B8184
:101A30009C812D813E816F81788589849A84CB84B5
:101A4000DC84ED84FE84AF84B88809891A893093D8
:101A50003907209338079093370780933607072E6E
:101A6000000C880B990B0E94962520E030E04AE795
:101A700054E40E94282860933A0770933B078093B0
:101A80003C0790933D07B401990C880B990B0E9479
:101A9000962520E030E04AE754E40E94282860932D
:101AA0003E0770933F078093400790934107B6012C
:101AB000DD0C880B990B0E94962520E030E04AE768
:101AC00054E40E9428286093420770934307809350
:101AD000440790934507B701FF0C880B990B0E94B0
:101AE000962520E030E04AE754E40E9428286B0164
:101AF0007C01C0924607D0924707E0924807F092D7
:101B00004907B501BB0C880B990B0E94962520E074
:101B100030E04AE754E40E9428284B015C0180929F
:101B20004A0790924B07A0924C07B0924D07B8011C
:101B3000110F880B990B0E94962520E030E04AE7B0
:101B400054E40E94282860934E0770934F078093B7
:101B5000500790935107C0925207D0925307E092DA
:101B60005407F09255078092560790925707A0921B
:101B70005807B092590760935A0770935B07809398
:101B80005C0790935D076A960FB6F894DEBF0FBEB0
:101B9000CDBFDF91CF911F910F91FF90EF90DF901C
:101BA000CF90BF90AF909F908F90089541E00E949A
:101BB000B80610926F0480936E040895CF93DF935C
:101BC000CFECD6E0988121E020939C049093BE0452
:101BD00010929D041092BF04682F81EC94E00E9443
:101BE0008F030E94B4058093E30661E088810E9420
:101BF000D60D0E945401C82F0E94B4058C2FDF918E
:101C0000CF910895CF93C82F81E080939C04C09317
:101C1000BE0410929D041092BF046FE081EC94E02A
:101C20000E948F030E94B40581110DC061E08C2FCA
:101C30000E94D60D90916E0480916F04981719F050
:101C4000CF910C9454018FEF9FEFCF9108958BE8C3
:101C500091E00197F1F741E061E082E10E94B8066E
:101C600010926F0480936E04813019F40E94540125
:101C7000089580E008954F925F926F927F928F92C5
:101C80009F92AF92BF92CF92DF92EF92FF92CF934B
:101C9000DF93FC012281213009F062C0EC0123892D
:101CA00034894589568967857089818992890E941E
:101CB00049276B017C012F89388D498D5A8D0E94EF
:101CC0004A274B015C018F8A988EA98EBA8E2B8190
:101CD0003C814D815E81C701B6010E94F5252B0133
:101CE0003C012F81388549855A85C501B4010E9480
:101CF000F5259B01AC01C301B2010E944A274B01AB
:101D00005C012B8D3C8D4D8D5E8DC701B6010E940F
:101D100049272B853C854D855E850E94F5259B01D5
:101D2000AC01C501B4010E944A270E949A28CB8EBB
:101D3000DC8EED8EFE8EE881F9810190F081E02D40
:101D4000CE01DF91CF91FF90EF90DF90CF90BF90C9
:101D5000AF909F908F907F906F905F904F9009947D
:101D6000DF91CF91FF90EF90DF90CF90BF90AF9039
:101D70009F908F907F906F905F904F900895FB01A0
:101D800001900020E9F73197AF01461B570BDC01AA
:101D9000ED91FC910280F381E02D09948F929F9246
:101DA000AF92BF920F931F93CF93DF93CDB7DEB760
:101DB000A1970FB6F894DEBF0FBECDBF19A2423077
:101DC00008F44AE08E010F5D1F4F842E912CB12C38
:101DD000A12CA50194010E940D27E62FB901CA018B
:101DE000EA3004F5E05DD801EE938D01232B242B1E
:101DF000252B79F790E080E0109729F0BD018AE665
:101E000095E00E94BF0EA1960FB6F894DEBF0FBEFC
:101E1000CDBFDF91CF911F910F91BF90AF909F9059
:101E20008F900895E95CDFCFBC018AE695E00C94C1
:101E3000BF0E4F925F926F927F928F929F92AF925E
:101E4000BF92CF92DF92EF92FF920F931F93CF93A7
:101E50006B017C01742EAC019B010E94082965ED89
:101E600071E0811126C046015701E894B7F82FEFC1
:101E70003FEF4FE75FE7C501B4010E9408298111D8
:101E80000CC02FEF3FEF4FE75FE7C501B4010E94A1
:101E90008F2569ED71E0181664F02FEF3FEF4FE7E3
:101EA0005FE4C701B6010E94F7281816ACF46DED87
:101EB00071E08AE695E0CF911F910F91FF90EF902E
:101EC000DF90CF90BF90AF909F908F907F906F905A
:101ED0005F904F900C94BF0E2FEF3FEF4FE75FECFA
:101EE000C701B6010E948F2587FDE1CF20E030E0D9
:101EF000A901C701B6010E948F2510E000E087FF0D
:101F00000AC06DE28AE695E00E94120A8C01F7FA97
:101F1000F094F7F8F094C0E060E070E080E09FE3B8
:101F20007C1641F020E030E040E251E40E94282895
:101F3000CF5FF6CFA70196010E944A272B013C01F3
:101F40000E94A1284B015C014AE00E94CE0E7C0158
:101F5000E00EF11ECC23C1F1C501B4010E9494250D
:101F60009B01AC01C301B2010E9449274B015C01F6
:101F70006EE28AE695E00E94120AE80EF91EC15050
:101F800018F120E030E040E251E4C501B4010E94C4
:101F9000F5252B013C010E94A1284B01B12CA12C5D
:101FA0004AE0C501B4010E94CE0EE80EF91EC5013B
:101FB000B4010E9494259B01AC01C301B2010E94AF
:101FC00049274B015C01DBCFC701CF911F910F91D6
:101FD000FF90EF90DF90CF90BF90AF909F908F9049
:101FE0007F906F905F904F900895CF92DF92EF9225
:101FF000FF92CF93DF93EC016A017B0181EE91E0C8
:102000000E94140FCE010E94090A8FEF92E00E94F5
:10201000140F42E0C701B6010E94190F63EE71E090
:102020008AE695E0DF91CF91FF90EF90DF90CF901F
:102030000C94BF0ECF92DF92EF92FF92CF93DF937B
:102040006C01990FEE08FF08F7FE21C06DE28AE6E9
:1020500095E00E94120AEC0166277727CB016C19E4
:102060007D098E099F094AE00E94CE0EC80FD91F34
:1020700063EE71E08AE695E00E94BF0E8C0F9D1F13
:10208000DF91CF91FF90EF90DF90CF9008954AE0DD
:10209000C701B6010E94CE0EEC01EACF0F931F9349
:1020A000CF93DF93EC010E94BF0E8C0163EE71E0D1
:1020B000CE010E94BF0E800F911FDF91CF911F9123
:1020C0000F9108950E94320B20E030E040E85FE37A
:1020D00060E070E0CB010E94E50181E090E0909328
:1020E00042068093410666EE71E08AE695E00C9424
:1020F0004E1080932E07682F880F770B80912D0745
:10210000681B710987FD7395072E000C880B990BCE
:102110000E949625609318077093190780931A07F9
:1021200090931B0781E090E09093400680933F06D8
:1021300067E072E08AE695E00C944E10CF93DF934F
:10214000EC0184E292E00E94140FCE010E94090A81
:1021500063EE71E08AE695E0DF91CF910C94BF0EBB
:10216000FC0180819181009711F00C94A9290895B8
:1021700085ED8093BC008091980490919904A09182
:102180009A04B0919B040796A11DB11D23E0B6955A
:10219000A795979587952A95D1F72091BC0024FDA6
:1021A00003C01092960408954091980450919904A8
:1021B00060919A0470919B04452B462B472B69F341
:1021C0000097A105B10541F02AE22A95F1F700C078
:1021D0000197A109B109E1CF809197040C946A0499
:1021E0000E94EF2A0F931F93CF93DF93EC01888116
:1021F0009981009759F02A813B812617370730F0E3
:1022000081E0DF91CF911F910F9108958B016F5F56
:102210007F4F0E94322A009759F0998388831B834D
:102220000A832C813D81232B59F7FC011082E8CFD2
:1022300080E0E7CFEF92FF920F931F93CF93DF934E
:10224000EC017B01198218821B821A821D821C827A
:10225000FB0101900020E9F731978F01061B170B56
:10226000B8010E94F21028813981811113C0211513
:10227000310519F0C9010E94A929198218821D820D
:102280001C821B821A82DF91CF911F910F91FF90C8
:10229000EF9008951D830C83B701C901DF91CF91A1
:1022A0001F910F91FF90EF900C94FD2ACF93DF9335
:1022B00000D000D000D0CDB7DEB76FE372E0CE0122
:1022C00001960E941A11CE0101960E949E10CE0125
:1022D00001960E94B01010923C0610923B06269682
:1022E0000FB6F894DEBF0FBECDBFDF91CF9108953A
:1022F000CF93DF93EC0170E060E00E94F210288140
:10230000398181110FC02115310519F0C9010E94D1
:10231000A929198218821D821C821B821A82DF91D0
:10232000CF9108951D821C8261ED73E0C901DF9198
:10233000CF910C94FD2AEF92FF920F931F93CF93AE
:10234000DF9300D0CDB7DEB78C0169831A82FC0120
:10235000E480F580FFEFEF1AFF0AB7010E94F21048
:10236000882381F0F8012081318184819581BE012B
:102370006F5F7F4F820F931F0E94FD2AF801F58245
:10238000E48281E00F900F90DF91CF911F910F9128
:10239000FF90EF9008951F920F920FB60F921124A5
:1023A0002F933F934F935F936F937F938F939F935D
:1023B000AF93BF93EF93FF93CF93DF9300D01F9220
:1023C000CDB7DEB783B1898389819091C004892715
:1023D0008A8380916B009A8189238B838B8180FF14
:1023E00005C0E0913C04F0913D0409958B8181FF8B
:1023F00005C0E0913E04F0913F0409958B8182FF76
:1024000005C0E0914004F091410409958B8183FF60
:1024100005C0E0914204F091430409958B8184FF4B
:1024200005C0E0914404F091450409958B8185FF36
:1024300005C0E0914604F091470409958B8186FF21
:1024400005C0E0914804F091490409958B8187FF0C
:1024500005C0E0914A04F0914B040995898180936D
:10246000C0040F900F900F90DF91CF91FF91EF91EB
:10247000BF91AF919F918F917F916F915F914F919C
:102480003F912F910F900FBE0F901F9018951F92A4
:102490000F920FB60F9211242F933F934F935F9398
:1024A0006F937F938F939F93AF93BF93EF93FF931C
:1024B0008091B900887F803609F44AC0F0F58832EF
:1024C00009F4A7C018F5803109F49BC0B8F488233B
:1024D00009F4F9C0883009F494C0FF91EF91BF91DD
:1024E000AF919F918F917F916F915F914F913F91AC
:1024F0002F910F900FBE0F901F901895883109F4FF
:1025000088C0803251F78093940414C0803409F459
:102510009DC040F48033B9F38833F9F68093940476
:1025200085ECB0C0803509F485C0883509F496C0C3
:10253000883499F60E94B810D0CF883909F48CC03D
:1025400038F5883729F050F4883611F0803729F6AD
:1025500083E08093960410923B0457C0883809F4B6
:102560007BC0803919F0803809F0B7CF80913B04E7
:10257000803208F071C0E0913B0481E08E0F8093BF
:102580003B048091BB00F0E0E55EFB4F80833DC0E3
:10259000803B39F0E0F4803A09F479C0883A09F0D8
:1025A0009CCF84E080939604109218041092170434
:1025B000E0911504F091160409958091170481119A
:1025C0000FC081E0809317041092F50309C0803C8E
:1025D00009F4A6CF883C09F4A3CF883B09F07DCF4E
:1025E000E091180481E08E0F80931804F0E0EB5026
:1025F000FC4F80818093BB00909118048091170458
:1026000029C0809171048093BB0085EC8093BC004D
:1026100064CF9091930480919204981758F5E091BB
:10262000930481E08E0F80939304F0E0EE58FB4F0B
:102630008081E9CFE091930481E08E0F8093930431
:102640008091BB00F0E0EE58FB4F808390919304A3
:10265000809192049817C8F285E8D8CFE09193044E
:1026600081E08E0F809393048091BB00F0E0EE58E0
:10267000FB4F80838091950481115CCF81E0809332
:10268000700484EA8093BC001092960426CF85ECF7
:102690008093BC001092960480913B04803230F409
:1026A000E0913B04F0E0E55EFB4F108260913B045B
:1026B00070E0E0911904F0911A048BE194E009951F
:1026C00010923B040ACF1092940434CF1F920F92C1
:1026D0000FB60F9211242F933F938F939F93AF9335
:1026E000BF938091E0039091E103A091E203B09148
:1026F000E3033091DF0323E0230F2D3758F50196D4
:10270000A11DB11D2093DF038093E0039093E103AB
:10271000A093E203B093E3038091E4039091E50377
:10272000A091E603B091E7030196A11DB11D80932E
:10273000E4039093E503A093E603B093E703BF910E
:10274000AF919F918F913F912F910F900FBE0F905E
:102750001F90189526E8230F0296A11DB11DD2CF18
:102760001F920F920FB60F9211242F933F934F9306
:102770005F936F937F938F939F93AF93BF93EF93E9
:10278000FF93E0911401F09115010995FF91EF91EC
:10279000BF91AF919F918F917F916F915F914F9179
:1027A0003F912F910F900FBE0F901F9018951F9281
:1027B0000F920FB60F9211242F933F934F935F9375
:1027C0006F937F938F939F93AF93BF93EF93FF93F9
:1027D000E0911201F09113010995FF91EF91BF91E2
:1027E000AF919F918F917F916F915F914F913F91A9
:1027F0002F910F900FBE0F901F9018951F920F9260
:102800000FB60F9211242F933F934F935F936F93C3
:102810007F938F939F93AF93BF93EF93FF93E09139
:102820001001F09111010995FF91EF91BF91AF91C6
:102830009F918F917F916F915F914F913F912F91D8
:102840000F900FBE0F901F9018951F920F920FB60A
:102850000F9211242F933F934F935F936F937F9326
:102860008F939F93AF93BF93EF93FF93E0910E01EC
:10287000F0910F010995FF91EF91BF91AF919F9159
:102880008F917F916F915F914F913F912F910F9019
:102890000FBE0F901F9018951F920F920FB60F92B8
:1028A00011242F933F934F935F936F937F938F9355
:1028B0009F93AF93BF93EF93FF93E0910C01F0913F
:1028C0000D010995FF91EF91BF91AF919F918F916C
:1028D0007F916F915F914F913F912F910F900FBE1C
:1028E0000F901F9018951F920F920FB60F92112400
:1028F0008F939F938091E1009091E100937F90935B
:10290000E10083FF0FC01092E90091E09093EB008B
:102910001092EC0092E39093ED0010924D0498E039
:102920009093F00082FF22C093E09093E900909191
:10293000F200992319F09AE39093E8009091D7035D
:10294000992341F09091D70391509093D70391111F
:1029500001C05D9A90914C04992341F090914C04F0
:10296000915090934C04911101C0289A84FF18C093
:102970008091E2008E7E81608093E2008091E10090
:102980008F7E8093E1008091D8038E7E806180935A
:10299000D8039F918F910F900FBE0F901F901895A5
:1029A00080FFF7CF8091E2008E7E80618093E2000D
:1029B0008091E1008E7E8093E1008091D8038E7E2D
:1029C0008160E5CF1F920F920FB60F921124CF9224
:1029D000DF92EF92FF920F931F932F933F934F93AA
:1029E0005F936F937F938F939F93AF93BF93EF9377
:1029F000FF93CF93DF93CDB7DEB76C97DEBFCDBF2C
:102A00001092E9008091E80083FF25C068E0CE01C4
:102A100045960E946D0882EF8093E8008D8987FFBC
:102A200039C09091E80090FFFCCF982F907609F084
:102A300034C19E894F89588D2F89F88C911131C0EE
:102A4000803861F58091D9038093F1001092F100F4
:102A50008EEF8093E8006C960FB6F894DEBF0FBE41
:102A6000CDBFDF91CF91FF91EF91BF91AF919F913A
:102A70008F917F916F915F914F913F912F911F9116
:102A80000F91FF90EF90DF90CF900F900FBE0F90BF
:102A90001F9018959EEF9093E800C7CF1092F10019
:102AA000D5CF913059F48111D3CF4130510581F602
:102AB0008091D9038D7F8093D903CACF933049F495
:102AC0008111C6CF4130510519F68091D90382603A
:102AD000F2CF953041F48091E80080FFFCCF206870
:102AE0002093E300B5CF963009F0A9C00B8D1C8D63
:102AF00022E01092E9001092D5031092D403F21252
:102B00002EC01092D3031092D2030E943C081F8261
:102B100099E09983FA8291E09E8390EA98879AEFF0
:102B200099872091D4033091D503275F3F4F3C8391
:102B30002B838D831092E9001092D5031092D40359
:102B40001093D3030093D20349E050E0BE016F5FBE
:102B50007F4F80E00E9416080E943C0879CF1093B6
:102B6000D3030093D2030E94BE03DC0112960D91A1
:102B70001C910115110509F451C1D801ED91FC9189
:102B80000480F581E02DBE016B5E7F4FC801099581
:102B9000009709F03EC1F80100851185EACFF3E006
:102BA000FF120EC08F89882309F440C0823061F47F
:102BB00040E862E183E591E00E94E307811148CF9C
:102BC00081E28093EB0047CF813029F440E862E155
:102BD00080E491E0F1CF833099F70E94BE03DC01DD
:102BE0001296ED90FC908E010F5F1F4F6801E1146B
:102BF000F10479F0D701ED91FC910680F781E02D89
:102C0000B801C7010995080F111DF701E084F1848F
:102C1000EECFD8011C92F60101900020E9F7319720
:102C2000BF016C197D0940E0C601C6CF6AE271E0C0
:102C3000FB01449150E080E80E94160809CF9730CC
:102C400009F4BECF983021F481E08093F10000CFE9
:102C5000993009F0FDCE837009F0B2CFE3E8F1E0DE
:102C600081E031E096E32191222371F08093E90025
:102C70003093EB00DF0111972C912093EC0090939F
:102C8000ED008F5F873079F78EE78093EA0010922E
:102C9000EA008F8980934D04DBCE8B8D9C8D109242
:102CA000E9001092D5031092D4039093D30380933C
:102CB000D203898D811192C08E899D89913A49F400
:102CC000813209F07DCF47E050E064E071E080E0C0
:102CD000B3CF913209F074CF833269F48F89988D24
:102CE000B0E0A0E08093000190930101A093020165
:102CF000B0930301ADCE803269F48091E80082FF89
:102D0000FCCF67E084E091E00E946D088BEF809338
:102D1000E8009ECE823209F09BCE8F8980930B0112
:102D2000EEEFFFE7859194918B3F9C4D51F1E0E0F0
:102D3000F8E08091040190910501A0910601B09105
:102D40000701803B9440A105B105F1F480910B018E
:102D500080FD1AC0EE3F8AE0F80789F587E797E71C
:102D600091838083809160008093D60388E19BE00B
:102D70000FB6F894A895809360000FBE9093600002
:102D800067CEEEEFFAE0D5CF808191818737974704
:102D900009F05ECEA8958091600088618093600004
:102DA0008091D60380936000EE3F2AE0F20789F01D
:102DB0008091FE0A9091FF0A9183808349CE8081A1
:102DC00091818737980751F29093FF0A8093FE0A0A
:102DD000C5CF1092FF0A1092FE0A3ACE0E94BE039F
:102DE000DC0112960D911C910115110509F4E8CE34
:102DF000D801ED91FC910190F081E02DBE016B5E58
:102E00007F4FC8010995811123CEF80100851185F6
:102E1000EBCF181619060CF41BCED2CEF1E0FF1240
:102E2000BECE6EE271E004CF1F920F920FB60F92EA
:102E300011242F933F934F935F936F937F938F93BF
:102E40009F93AF93BF93EF93FF938DEC94E00E9419
:102E5000FB08FF91EF91BF91AF919F918F917F916F
:102E60006F915F914F913F912F910F900FBE0F90F7
:102E70001F9018951F920F920FB60F9211242F9347
:102E80008F939F93EF93FF93E091DD04F091DE0425
:102E90008081E091E304F091E40482FD1BC0908105
:102EA0008091E6048F5F8F732091E704821741F0D1
:102EB000E091E604F0E0E353FB4F958F8093E60446
:102EC000FF91EF919F918F912F910F900FBE0F90D7
:102ED0001F9018958081F4CF1F920F920FB60F921A
:102EE00011242F933F934F935F936F937F938F930F
:102EF0009F93AF93BF93CF93DF93EF93FF93809113
:102F0000DE038F5F8093DE03F894C1EED5E06BA102
:102F10007CA1789489A19AA17AA369A3681B790BF3
:102F2000072E000C880B990B0E9496256B8B7C8BCF
:102F30008D8B9E8BF894CAEBD5E06BA17CA1789425
:102F400089A19AA17AA369A3681B790B072E000CAB
:102F5000880B990B0E9496256B8B7C8B8D8B9E8B9F
:102F6000FF91EF91DF91CF91BF91AF919F918F91A1
:102F70007F916F915F914F913F912F910F900FBE75
:102F80000F901F9018958AE596E00E94B0108CE68D
:102F900097E00C94B010CF92DF92EF92FF920F93D4
:102FA0001F9383B18093C004E1ECF4E0138212829A
:102FB00088EE93E0A0E0B0E084839583A683B78396
:102FC00027E931E031832083EDECF4E013821282B3
:102FD00084839583A683B78329EA31E031832083F4
:102FE0002DEC30E0358724872CEC30E037872687BE
:102FF00028EC30E0318B208B29EC30E0338B228BB6
:103000002AEC30E0358B248B2EEC30E0378B268B8E
:10301000118E128E138E148EEAE6F5E01382128260
:1030200084839583A683B7838BEB91E09183808320
:103030008FEF9FEF95878487E1EEF5E01282C12C38
:10304000D12CE12C80E4F82EC382D482E582F68272
:1030500000E010E020E83FE30783108721873287F4
:103060004DEC5CEC6CE47FE343875487658776879F
:103070001786108A118A128A138A148A158A168A68
:10308000178A108E118E128E138E148E158E168E38
:1030900084EA91E090A3878FA3EDB1E0B183A08390
:1030A000EAEBF5E01282C382D482E582F6820783DE
:1030B00010872187328743875487658776871786ED
:1030C000108A118A128A138A148A158A168A178A14
:1030D000108E118E128E138E148E158E168E90A356
:1030E000878F8DEC91E0918380831092220661EDB1
:1030F00073E08CE697E00E941A11E3E2F6E081E1CA
:1031000080831282118213821482158216821782A2
:1031100010861186128613861486158616861786E3
:10312000108A118A128A138A148A158A168A178AB3
:10313000EBE3F6E082E090E09183808313821282D9
:10314000158214821782168283E393E3ABEEB0E418
:1031500080879187A287B38784EC9AE4A7EABFE3CC
:1031600084879587A687B787808B918BA28BB38B3B
:1031700084E190E0958B848B86E1868B92E1978B3E
:103180009DE1908F818F85E1828F84E1838F148E02
:1031900061ED73E08AE596E00E941A1184E2E8E2AC
:1031A000F1E0A1E6B6E001900D928A95E1F788E1A1
:1031B000ECE4F1E0A5E8B6E001900D928A95E1F724
:1031C00084E1E4E6F1E0ADE9B6E001900D928A9584
:1031D000E1F784EA90E7ADE7BFE38093C9069093F7
:1031E000CA06A093CB06B093CC061092D3061092D9
:1031F000D4061092D5061092D6061092D7061092D9
:10320000D8061092D9061092DA061092DB061092B8
:10321000DC061092DD061092DE061092DF06109298
:10322000E0061092E1061092E20681E090E09093B1
:10323000CE068093CD061092D1061092D006109241
:10324000D2061092140710921507109216071092CA
:103250001707109218071092190710921A07109268
:103260001B0710921C0710921E0710921D07109248
:10327000200710921F071092220710922107109228
:103280002407109223071092260710922507109208
:1032900028071092270710922A07109229071092E8
:1032A0002C0710922B0710922D0710922E071092C8
:1032B0002F071092300710923207109231071092A8
:1032C0003307109239071092380710926007109256
:1032D00061071092620710926307109264071092C0
:1032E0006507109266071092670780E090E0AAE7F2
:1032F000B4E48093680790936907A0936A07B0933A
:103300006B0768E070E08AE596E01F910F91FF90EF
:10331000EF90DF90CF900C94F210CF93DF93CDB766
:10332000DEB7AA970FB6F894DEBF0FBECDBF789474
:1033300084B5826084BD84B5816084BD85B58260BA
:1033400085BD85B5816085BD80916E00816080936B
:103350006E001092810080918100826080938100D4
:1033600080918100816080938100809180008160E4
:103370008093800080919100826080939100809181
:103380009100816080939100809190008160809392
:1033900090008091C10084608093C1008091C10041
:1033A00082608093C1008091C10081608093C100E0
:1033B0008091C30081608093C3008091C0008260CF
:1033C0008093C0008091C20081608093C200809190
:1033D0007A00846080937A0080917A008260809382
:1033E0007A0080917A00816080937A0080917A00DF
:1033F000806880937A0010924D041092D903109245
:10340000D8038091D70081608093D70080EA8093B1
:10341000D80089B5806189BD89B5826089BD09B44C
:1034200000FEFDCF0E9490078091D8008F7C8061C4
:103430008093D8008091E000807F8093E0008091AD
:10344000E1008E7E8093E1008DE08093E200559A4A
:10345000209A8FEF9FEF909377058093760567E42E
:1034600072E08AE695E00E944E10F8941092C00037
:103470008AE08093C1001092C2001092C300209194
:103480004F0630915006A0E8BEE30E94EA2639E0DC
:1034900096958795779567953A95D1F7615071091B
:1034A000862F871B7093BF008093D10084E08093A8
:1034B0007200789466E472E08AE695E00E944E100D
:1034C00062E572E08AE695E00E944E10F89482EA86
:1034D0008093800089E18093810084EA91E0909359
:1034E00087008093860010928900109288001092C5
:1034F0008B0010928A0010928D0010928C006AEC62
:1035000072E084E00E9400038CEA92E0909315013F
:103510008093140180916A008F7C806180936A009F
:10352000EE9A789461E572E08AE695E00E944E108A
:103530002E98269A2A98229A6FE572E08AE695E0FC
:103540000E944E1024982C9A6A98729A8CB182FB31
:10355000882780F98093070693B18091070692959A
:1035600091708927809306066EE572E08AE695E001
:103570000E944E102D98259A2998219A6FE572E0A5
:103580008AE695E00E944E106E98769A8098889A06
:103590008FB181708093E0059CB18091E00596FB2E
:1035A000992790F989278093DF056EE572E08AE616
:1035B00095E00E944E1060E0809123060E948B04EB
:1035C000E0912306E43018F0E73009F033C286E9D1
:1035D00091E00E94280A63EE71E08AE695E00E947D
:1035E000BF0E80912306882309F416C2813009F0AA
:1035F000E2C182E49BE090931301809312018091D9
:1036000069008F73806480936900EB9A10926F0455
:1036100010926E0410929D041092BF040E944C04FC
:1036200080E593E0909316048093150481E593E080
:1036300090931A04809319048BE60E94020E893637
:10364000910509F430C28AE60E94020E893691057E
:1036500009F0D4C01092CE061092CD068AE680936F
:10366000CF0681E10E94DE0D807F682F646081E1DA
:103670000E949B0680E090E0ACE8B1E48093D30622
:103680009093D406A093D506B093D60689E692E02F
:103690000E94140F6091D3067091D4068091D506D4
:1036A0009091D60642E00E94190F69E772E08AE61F
:1036B00095E00E944E1081E10E94DE0D8F70682F10
:1036C000606381E10E949B06C12CD12C20E5E22E93
:1036D00022E4F22EC092DF06D092E006E092E106EC
:1036E000F092E20684E892E00E94140F6091DF06F7
:1036F0007091E0068091E1069091E20642E00E941E
:10370000190F65E972E08AE695E00E944E1080E1AB
:103710000E94DE0D682F637F80E10E949B0683E29A
:103720009BEDA9E7BDE38093D7069093D806A093BD
:10373000D906B093DA068AE992E00E94140F6091EC
:10374000D7067091D8068091D9069091DA0643E0A9
:103750000E94190F69EA72E08AE695E00E944E1015
:1037600080E10E94DE0D8F70682F606380E10E940F
:103770009B06C092DB06D092DC06E092DD06F0925A
:10378000DE0682EB92E00E94140F6091DB067091DE
:10379000DC068091DD069091DE0642E00E94190F62
:1037A00065E972E08AE695E00E944E1064E082E1ED
:1037B0000E949B0680E090E0A6E9B3EC8093EC06C3
:1037C0009093ED06A093EE06B093EF0680E090E0B4
:1037D000A8ECB2E48093E4069093E506A093E60695
:1037E000B093E70680E090E0A0E2B4EC8093E806B6
:1037F0009093E906A093EA06B093EB0661E08DE0B2
:103800000E948B0460E0809151060E948B0460E06E
:10381000809152060E948B0460E0809153060E94C2
:103820008B0460E0809154060E948B0460E08091DC
:1038300055060E948B0460E0809156060E948B041E
:10384000E091DD04F091DE0482E08083E091D90410
:10385000F091DA041082E091DB04F091DC0480E165
:1038600080831092E504E091E104F091E20486E0A7
:103870008083E091DF04F091E004808180618083A7
:10388000E091DF04F091E004808188608083E09122
:10389000DF04F091E004808180688083E091DF04A0
:1038A000F091E00480818F7D808361E080E00E9460
:1038B0001E0462EC72E08DEC94E00E944E106BEC02
:1038C00072E08AE695E00E944E1010926F0410920A
:1038D0006E0410929D041092BF040E944C0480E577
:1038E00093E0909316048093150481E593E0909300
:1038F0001A048093190488E48093B80086E191E06B
:103900000E94E00A60E08AE00E948B0422242A944C
:1039100093E0392E01E010E0809124069091250675
:10392000049709F021C11092250610922406809078
:103930002A0690902B06A0902C06B0902D064501EB
:10394000AA24BB247401FF24C7010E941A1026E098
:10395000E216F10409F0ADC00E94320B80913B06E3
:1039600090913C068130910509F063C32BE1E2168A
:10397000F10408F0F9C0F701E054F34E0C942F273E
:10398000991DB41DC21FB41DB41DB41D0320B41D68
:10399000B41DB41DB41DB41D1720B41DDA1FB41D11
:1039A0000C200C200C20B41D132013201320B41D58
:1039B000152015201520823071F482E49BE090934D
:1039C0000F0180930E0180916900837F8460809352
:1039D0006900E99A1BCE833071F482E49BE09093F6
:1039E0000D0180930C01809169008C7F8160809330
:1039F0006900E89A0BCE873009F008CE82E49BE09C
:103A0000909315018093140180916A008F7C8061EE
:103A100080936A00EE9AFACD82E49BE090931101C4
:103A200080931001809169008F7C80618093690090
:103A3000EA9AECCDE850EA3058F5F0E0E757FE4F4F
:103A400080818F3F29F18CE791E00E94280AE09164
:103A50002306E8508FEFEA3020F4F0E0E757FE4FFE
:103A60008081082E000C990B0E941A10E091230609
:103A7000E850EA3008F0CACDF0E0E757FE4F808109
:103A8000883008F0C3CD62E47BE00E940003BECD25
:103A900086E691E00E94280A63EE71E08AE695E0EE
:103AA0000E94BF0EB3CD1092CE061092CD068BE6CB
:103AB000D6CD80913B0690913C06A4E0EA16F10435
:103AC000D1F4029719F40E94561146CF6BED72E0C3
:103AD000CE0101960E941A11CE0101960E949E10FD
:103AE000CE0101960E94B01082E090E090933C06D7
:103AF00080933B0631CFB1E0EB16F10409F02ECFF5
:103B00008130910501F3892B09F028CF61EE72E035
:103B1000CE0101960E941A11CE0101960E949E10BC
:103B2000CE0101960E94B010F0923C06E0923B0656
:103B300013CF80915A0690915B06C12CD12C76014F
:103B4000009719F00E9453256B0186EE92E00E94C7
:103B5000140FC6010E941A10D0922207C0922107AA
:103B60008AE596E00E9478118091DE03882309F4AB
:103B700076C0823030F065E373E08AE695E00E941B
:103B80004E101092DE0380913F06909140060297FE
:103B900009F05DC00E94E004E090DC03F090DD03DA
:103BA000E80EF91EF092DD03E092DC032091DA03C7
:103BB0003091DB036C01C21AD30A9093DB0380932C
:103BC000DA03BC01990F880B990B0E94962526EA0F
:103BD0003BE944EC5AE30E94F5254B015C01B70137
:103BE000FF0C880B990B0E94962520E030E0A9017C
:103BF0000E94F5259B01AC01C501B4010E944A2732
:103C00004B015C01B601DD0C880B990B0E949625D7
:103C100020E030E0A9010E94F5259B01AC01C5011F
:103C2000B4010E944A270E949A28072E000C880B94
:103C3000990B0E9496259B01AC016091140770912D
:103C4000150780911607909117070E94E50181EEF4
:103C500095E00E943B0E8AEB95E00E943B0EE090BF
:103C60003D06F0903E0691E0E916F10409F437C2F2
:103C7000A2E0EA16F10409F4E7C38EE10E94DE0D2A
:103C8000837009F433C18091CF0691E090939C0436
:103C90008093BE0410929D041092BF0468E281ECF0
:103CA00094E00E948F030E94B40566E08091CF06E5
:103CB0000E94D60D0E94A8077B0180916E0490910E
:103CC0006F04891B990B2091D0063091D106863064
:103CD00091050CF0B6C421153105C9F30E94A8075F
:103CE0006E197F098091D0069091D10686179707AB
:103CF00020F7A1E0A093D2068091CF06B1E0B09367
:103D00009C048093BE0410929D041092BF0462E252
:103D100081EC94E00E948F030E94B40566E08091DC
:103D2000CF060E94D60D0E94A8077B0180916E04E9
:103D300090916F04891B990B2091D0063091D10688
:103D4000863091050CF0AAC421153105C9F30E94F3
:103D5000A8076E197F098091D0069091D106861729
:103D6000970720F721E02093D2066091B706709163
:103D7000B806072E000C880B990B0E9496256F83BE
:103D8000788789879A874090E4065090E50660908E
:103D9000E6067090E7066091BB067091BC06072EA0
:103DA000000C880B990B0E9496256F87788B898B66
:103DB0009A8B8091EC069091ED06A091EE06B09161
:103DC000EF068B8B9C8BAD8BBE8B6091B90670918F
:103DD000BA06072E000C880B990B0E9496256F8B54
:103DE000788F898F9A8F8091E8069091E906A0914B
:103DF000EA06B091EB068B879C87AD87BE878091E2
:103E00003B0690913C06029709F075C4C090C90624
:103E1000D090CA06E090CB06F090CC06A7019601A0
:103E200060E070E080E89FE30E9449274B015C015D
:103E3000A7019601C301B2010E94F5252B013C01A7
:103E4000A50194016F81788589859A850E94F52561
:103E50009B01AC01C301B2010E944A276093E406B2
:103E60007093E5068093E6069093E706A701960116
:103E70006B857C858D859E850E94F5252B013C01F7
:103E8000A50194016F89788D898D9A8D0E94F52501
:103E90009B01AC01C301B2010E944A276093E8066E
:103EA0007093E9068093EA069093EB06A7019601CA
:103EB0006B897C898D899E890E94F5256B017C0127
:103EC000A50194016F85788989899A890E94F525D1
:103ED0009B01AC01C701B6010E944A276093EC0622
:103EE0007093ED068093EE069093EF060E94E00437
:103EF0008DEC94E00E94DB08892BC9F08DEC94E0F6
:103F00000E94B908F82E682F8CE697E00E949B115A
:103F10009AE0F912EDCF8AEC93E00E94140F8CE640
:103F200097E00E94090A8CE697E00E9478112091A0
:103F30001E0130911F0180912001909121012817CD
:103F4000390799F0A901481B590B4932510508F06E
:103F500060C5309321012093200160912001709170
:103F6000210186E191E00E94AE0AA0E0B0E0AB2B17
:103F700009F4D2CC0E94E708882309F4CDCC0E9432
:103F80000000CACC80915A0690915B06C12CD12CBE
:103F90007601009719F00E9453256B0184EF92E09F
:103FA0000E94140FC6010E941A10D0922407C092DA
:103FB0002307D6CD10933E0600933D06109233079B
:103FC0000E94320B1092400610923F0662E073E0AE
:103FD0008AE695E00E944E1080915A0690915B0609
:103FE000009769F00E9453250E949625609314075C
:103FF000709315078093160790931707B1CD60E073
:1040000070E0CB01F1CF82E090E090933E06809388
:104010003D060E946210A8CD61E2680D8AE596E037
:104020000E949B11A1CD60E2F8CF6FE1F6CF60E373
:10403000F5CF892B09F098CD8AE0E816F10471F1EB
:1040400084F4A5E0EA16F10401F1B8E0EB16F104FE
:1040500009F08ACD10933E0600933D0682E090E081
:104060001AC020E1E216F10401F181E1E816F10441
:1040700049F19DE0E916F10409F076CD10933E0672
:1040800000933D0683E090E006C010933E06009347
:104090003D0681E090E00E94791066CD10933E06C7
:1040A00000933D0690E080E0F6CF6CE173E08AE695
:1040B00095E00E944E10A8EEB3E0B0931F01A093CC
:1040C0001E0152CD68E273E08AE695E00E944E1030
:1040D00080ED97E090931F0180931E0145CD809164
:1040E0003F06909140068130910509F443C010F1DC
:1040F0008230910509F4C5C0039709F0BECD209127
:104100001D0730911E0780911F07909120072817E7
:1041100039070CF067C120E030E040E051E4CA010B
:10412000B9010E946E010E94A80770931E07609358
:104130001D07A3CD8091310790913207009769F058
:104140008130910509F099CD909322078093210742
:10415000909324078093230708C01092220710929F
:104160002107F0922407E09223070E941D020E947B
:10417000791083CD90912D0780912E079817A1F18A
:10418000C0901807D0901907E0901A07F0901B070D
:1041900020E030E0A901C701B6010E94F7281816F7
:1041A000A4F420E030E040E050E4C701B6010E94F2
:1041B000F7281816A4F420E030E040E050EC60E06E
:1041C00070E0CB010E94E50158CD20E030E040E0F6
:1041D00050ECC701B6010E948F2587FFECCF20E08D
:1041E00030E040E050E4EBCF2091210730912207EE
:1041F00080912507909126072817390759F42091B7
:1042000023073091240780912707909128072817CA
:10421000390729F1609114077091150780911607ED
:10422000909117070E949A28072E000C880B990B73
:104230000E949625609314077093150780931607C4
:104240009093170782E090E09093400680933F069A
:104250006DE573E08AE695E00E944E100ECD8091E8
:10426000310790913207019690933207809331077E
:104270000E94320B1092400610923F0662E073E0FB
:10428000E9CF809153060E94BC047C0180915206C4
:104290000E94BC04B101681B790B072E000C880B2F
:1042A000990B0E9496259B01AC010E944A274B0165
:1042B0005C01B1016E197F09072E000C880B990B68
:1042C0000E9496259B01AC01C501B4010E944A27BA
:1042D0002B013C01809151060E94BC045C0180913D
:1042E00054060E94BC046C01809155060E94BC04D7
:1042F0004C01809156060E94BC047C01B1016A19F0
:104300007B09072E000C880B990B0E94962520E054
:1043100030E040E450E40E94F525A30192010E94A0
:104320004A270E949A28613D7740F4F1B10168194B
:104330007909072E000C880B990B0E9496259B018A
:10434000AC010E944A274B015C01B1016C197D0947
:10435000072E000C880B990B0E9496259B01AC013F
:10436000C501B4010E944A274B015C01B1016E19DD
:104370007F09072E000C880B990B0E94962520E0E0
:1043800030E040E450E40E94F5259B01AC01C501FA
:10439000B4010E944A270E949A288091570691E012
:1043A0008927613D774014F490E080E090935706B0
:1043B000882309F462CC0E94A80770931E076093BB
:1043C0001D070E94A80768517C4F709320076093D7
:1043D0001F0783E090E09093400680933F0669E7D3
:1043E00073E038CF80912D078130F1F04CF48823B1
:1043F00089F01092200710921F070E94320BB5CE51
:104400008230E1F08330A9F7809127079091280747
:1044100001970FC0809125079091260701969093F0
:10442000260780932507E5CF8091270790912807DD
:1044300001969093280780932707DBCF809125076B
:10444000909126070197EBCF80914106909142060B
:104450008130910509F4BAC0029709F00ECC0E9490
:10446000270E882309F4E4C20E94C10C80E090E08A
:10447000A0E8BFE38093600790936107A093620771
:10448000B09363070E94A8070E9494259B01AC018A
:10449000609168077091690780916A0790916B0736
:1044A0000E944A27609364077093650780936607AC
:1044B00090936707C0906007D0906107E090620713
:1044C000F090630768EB73E0CE0101960E941A1129
:1044D000B701A601CE0101960E94F50FCE0101960B
:1044E0000E94B010C0904607D0904707E090480760
:1044F000F09049076EEB73E0CE0101960E941A110D
:10450000B701A601CE0101960E94F50FCE010196DA
:104510000E94B010C0904E07D0904F07E090500717
:10452000F0905107F7FAF094F7F8F09464EC73E028
:10453000CE0101960E941A11B701A601CE01019683
:104540000E94F50FCE0101960E94B0108090600786
:1045500090906107A0906207B09063072091460792
:1045600030914707409148075091490760E070E05B
:10457000CB010E94492720E030E040E05FE30E9449
:10458000F525A50194010E94F5256B017C01F7FA40
:10459000F094F7F8F09420E030E040E450E46091CB
:1045A0004E0770914F0780915007909151070E94DC
:1045B0004A2720E030E040EA50E40E94F525A501BA
:1045C00094010E94F525A7019601FCCD0E94270EBB
:1045D000882391F10E94C10C0E94320B68E273E0C3
:1045E0008AE695E00E944E10A0EDB7E0B0931F015F
:1045F000A0931E010E94A8070E9494259B01AC0174
:10460000609168077091690780916A0790916B07C4
:104610000E944A276093640770936507809366073A
:1046200090936707F0924206E092410665E973E0D5
:104630008AE695E00E944E1020E030E040E05FE323
:10464000BECD0E945401C82E0E945401B82E0E9473
:104650005401E82E0E945401D82E0E945401F82ED5
:104660000E945401B8A21F8E2F8D38A12C2930939F
:10467000B2062093B106DAA219A229A13AA12E29E5
:104680003093B4062093B3068CA31BA28BA19CA1EC
:104690008F299093B6068093B5062ECB0E945401C5
:1046A000C82E0E945401B82E0E945401E82E0E9488
:1046B0005401D82E0E945401F82E0E945401BEA22B
:1046C0001DA22DA13EA12C293093B8062093B70638
:1046D000D8A61FA22FA138A52E293093BA06209361
:1046E000B9068AA719A689A59AA58F299093BC0611
:1046F0008093BB063ACB8090D3069090D406A090CE
:10470000D506B090D6068091DF069091E006A09184
:10471000E106B091E2068B8F9C8FAD8FBE8F9C011E
:10472000AD0160E070E080E89FE30E9428286B0103
:104730007C01A30192016F81788589859A850E9409
:104740004927A50194010E94F525A70196010E9421
:10475000F52520E030E04AE754E40E942828209123
:10476000FC063091FD064091FE065091FF060E9426
:104770004A276093FC067093FD068093FE06909393
:10478000FF062B893C894D895E896F8578898989E7
:104790009A890E944927A50194010E94F525A70145
:1047A00096010E94F52520E030E04AE754E40E949B
:1047B0002828209104073091050740910607509161
:1047C00007070E944A2760930407709305078093A8
:1047D00006079093070720E030E04AE754E4C5015C
:1047E000B4010E9428282B013C01AC019B01C701A8
:1047F000B6010E94F5256B017C012B853C854D851A
:104800005E856F89788D898D9A8D0E9449279B01DD
:10481000AC01C701B6010E94F52520910007309137
:10482000010740910207509103070E944A276F83B6
:10483000788789879A876091B5067091B606072EAA
:10484000000C880B990B0E9496256B017C016091EE
:10485000B1067091B206719561957109072E000C31
:10486000880B990B0E949625A70196010E94C927E3
:1048700020EE3EE245E652E40E94F5254B015C0144
:1048800024EA30E74DE75FE36F81788589859A8573
:104890000E94F5256B017C012AE037ED43E25CE3E1
:1048A000C501B4010E94F5259B01AC01C701B60109
:1048B0000E944A276B017C01C0920007D092010739
:1048C000E0920207F0920307A30192016B8D7C8DA9
:1048D0008D8D9E8D0E94F5259B01AC0160E070E0FE
:1048E00080E89FE30E9428282AE037ED43E25CE35A
:1048F0000E94F5252B013C012F81388549855A8579
:10490000C501B4010E9449279B01AC01C301B2015A
:104910000E94F5259B01AC016B857C858D859E856C
:104920000E9449276093E8067093E9068093EA069F
:104930009093EB0620E030E040E251ECC701B60175
:104940000E948F2587FF23C080912F0781119FC070
:1049500091E090932F0761E08DE00E941E0460912A
:1049600004077091050780910607909107070E9440
:104970009A28CB0168E671E00E94F9269C012C5F21
:104980003F4F29303105C0F410922D07AFCA20E007
:1049900030E040E251ECC701B6010E94F72818163A
:1049A000F4F680912F078823D1F2A1E0A09333077A
:1049B00010922F0760E0D0CF9C0126553109293095
:1049C000310528F028593E4F2930310520F4B1E057
:1049D000B0932D078BCA9C01205B3109293031052A
:1049E00028F028593E4F2930310520F422E0209349
:1049F0002D077CCA9C012A5031402930310528F00E
:104A0000825A9F4F099708F071CA83E080932D075F
:104A10006DCA8217930730F44496909321018093D6
:104A200020019BCA2817390708F097CA4497F5CF89
:104A3000C0906407D0906507E0906607F090670724
:104A40000E94A8070E9494259B01AC01C701B601F2
:104A50000E944927209168073091690740916A07B1
:104A600050916B070E94282860936007709361073C
:104A7000809362079093630720E030E0A9010E94D1
:104A80008F2518160CF416CD0E94621013CD20E06D
:104A900030E040E251ECC701B6010E94F728181639
:104AA0000CF05DCF82CF1F93FC0199278827BC01B2
:104AB000E89411911032E9F3193010F01E30C8F368
:104AC0001B3251F01D3249F4689406C00E947A25C9
:104AD000610F711D811D911D119110531A30B0F39A
:104AE0003EF490958095709561957F4F8F4F9F4FC5
:104AF0001F910895592F482F372F262F660F771FA4
:104B0000881F991F660F771F881F991F620F731FD9
:104B1000841F951F660F771F881F991F08950E9495
:104B2000D12508F481E00895E89409C097FB3EF48C
:104B300090958095709561957F4F8F4F9F4F9923EA
:104B4000A9F0F92F96E9BB279395F6958795779568
:104B50006795B795F111F8CFFAF4BB0F11F460FF28
:104B60001BC06F5F7F4F8F4F9F4F16C0882311F080
:104B700096E911C0772321F09EE8872F762F05C094
:104B8000662371F096E8862F70E060E02AF09A952F
:104B9000660F771F881FDAF7880F9695879597F924
:104BA0000895990F0008550FAA0BE0E8FEEF1616BE
:104BB0001706E807F907C0F012161306E407F50711
:104BC00098F0621B730B840B950B39F40A2661F085
:104BD000232B242B252B21F408950A2609F4A14028
:104BE000A6958FEF811D811D08950E9408260C94C3
:104BF00079260E946B2638F00E94722620F09523B9
:104C000011F00C9462260C94682611240C94AD26A5
:104C10000E948A2670F3959FC1F3950F50E0551FAF
:104C2000629FF001729FBB27F00DB11D639FAA2701
:104C3000F00DB11DAA1F649F6627B00DA11D661F50
:104C4000829F2227B00DA11D621F739FB00DA11D71
:104C5000621F839FA00D611D221F749F3327A00D2B
:104C6000611D231F849F600D211D822F762F6A2FC7
:104C700011249F5750409AF0F1F088234AF0EE0F2C
:104C8000FF1FBB1F661F771F881F91505040A9F759
:104C90009E3F510580F00C9462260C94AD265F3F38
:104CA000E4F3983ED4F3869577956795B795F79595
:104CB000E7959F5FC1F7FE2B880F911D969587950D
:104CC00097F9089597F99F6780E870E060E008958C
:104CD0009FEF80EC089500240A9416161706180614
:104CE0000906089500240A941216130614060506F0
:104CF0000895092E0394000C11F4882352F0BB0F81
:104D000040F4BF2B11F460FF04C06F5F7F4F8F4FE3
:104D10009F4F089557FD9058440F551F59F05F3F1E
:104D200071F04795880F97FB991F61F09F3F79F0CD
:104D300087950895121613061406551FF2CF46954F
:104D4000F1DF08C0161617061806991FF1CF8695D1
:104D50007105610508940895E894BB2766277727B5
:104D6000CB0197F908952F923F924F925F926F92E5
:104D70007F928F929F92AF92BF92CF92DF92EF92EB
:104D8000FF920F931F93CF93DF93CDB7DEB7CA1B6C
:104D9000DB0B0FB6F894DEBF0FBECDBF09942A8897
:104DA000398848885F846E847D848C849B84AA843F
:104DB000B984C884DF80EE80FD800C811B81AA81CC
:104DC000B981CE0FD11D0FB6F894DEBF0FBECDBF97
:104DD000ED010895A29FB001B39FC001A39F700D84
:104DE000811D1124911DB29F700D811D1124911DF3
:104DF000089597FB072E16F4009407D077FD09D08D
:104E00000E94352707FC05D03EF4909581959F4F71
:104E10000895709561957F4F0895A1E21A2EAA1BFF
:104E2000BB1BFD010DC0AA1FBB1FEE1FFF1FA2175A
:104E3000B307E407F50720F0A21BB30BE40BF50B57
:104E4000661F771F881F991F1A9469F760957095E0
:104E5000809590959B01AC01BD01CF010895EE0FA7
:104E6000FF1F0590F491E02D0994AA1BBB1B51E193
:104E700007C0AA1FBB1FA617B70710F0A61BB70BCA
:104E8000881F991F5A95A9F780959095BC01CD016F
:104E900008955058BB27AA270E9461270C947926B1
:104EA0000E946B2638F00E94722620F039F49F3F52
:104EB00019F426F40C9468260EF4E095E7FB0C94A4
:104EC0006226E92F0E948A2658F3BA1762077307F1
:104ED0008407950720F079F4A6F50C94AC260EF41F
:104EE000E0950B2EBA2FA02D0B01B90190010C01FA
:104EF000CA01A0011124FF27591B99F0593F50F412
:104F0000503E68F11A16F040A22F232F342F442769
:104F1000585FF3CF469537952795A795F040539561
:104F2000C9F77EF41F16BA0B620B730B840BBAF031
:104F30009150A1F0FF0FBB1F661F771F881FC2F79C
:104F40000EC0BA0F621F731F841F48F487957795B0
:104F50006795B795F7959E3F08F0B0CF9395880F6A
:104F600008F09927EE0F9795879508950E946B2674
:104F700060F080E891E009F49EEF0E94722628F02C
:104F800040E851E071F45EEF0CC00C9468260C947C
:104F9000AC26E92FE0780E948A2640F3092E052AE4
:104FA000B1F3261737074807590738F00E2E07F8D0
:104FB000E02569F0E025E0640AC0EF6307F800949B
:104FC00007FADB01B9019D01DC01CA01AD01EF93D4
:104FD0000E943F280E9479260E94F9275F9155235D
:104FE00039F02BED3FE049E450FD49EC0C944A27A1
:104FF0000895DF93DD27B92FBF7740E85FE31616EA
:10500000170648075B0718F4D92F0E94FC289F93C6
:105010008F937F936F930E940429ECEAF0E00E9443
:10502000D0280E9479262F913F914F915F910E9445
:105030000826DD2351F09058A2EA2AED3FE049EC22
:105040005FE3D0785D270E946127DF910C94792679
:105050000E943C280C9479260E94722658F00E94E7
:105060006B2640F029F45F3F29F00C946226511121
:105070000C94AD260C9468260E948A2668F3992326
:10508000B1F3552391F3951B550BBB27AA27621744
:105090007307840738F09F5F5F4F220F331F441F51
:1050A000AA1FA9F335D00E2E3AF0E0E832D0915085
:1050B0005040E695001CCAF72BD0FE2F29D0660F72
:1050C000771F881FBB1F261737074807AB07B0E8B5
:1050D00009F0BB0B802DBF01FF2793585F4F3AF0BB
:1050E0009E3F510578F00C9462260C94AD265F3FEC
:1050F000E4F3983ED4F3869577956795B795F79541
:105100009F5FC9F7880F911D9695879597F9089528
:10511000E1E0660F771F881FBB1F621773078407C4
:10512000BA0720F0621B730B840BBA0BEE1F88F7D3
:10513000E09508950E94A1286894B1110C94AD26C1
:1051400008950E94922688F09F5798F0B92F9927CA
:10515000B751B0F0E1F0660F771F881F991F1AF062
:10516000BA95C9F714C0B13091F00E94AC26B1E0F5
:1051700008950C94AC26672F782F8827B85F39F0F4
:10518000B93FCCF3869577956795B395D9F73EF4FB
:1051900090958095709561957F4F8F4F9F4F0895A3
:1051A000DF93CF931F930F93FF92EF92DF927B01D8
:1051B0008C01689406C0DA2EEF010E940826FE01D9
:1051C000E894A5912591359145915591A6F3EF016C
:1051D0000E946127FE019701A801DA9469F7DF9028
:1051E000EF90FF900F911F91CF91DF9108950E9452
:1051F000D12508F48FEF08959B01AC0160E070E0C9
:1052000080E89FE30C9428289B01AC010C94F525C1
:105210000E94D125880B990B08950F931F93CF936C
:10522000DF938230910510F482E090E0E091740702
:10523000F091750730E020E0B0E0A0E0309799F4FD
:105240002115310509F44AC0281B390B24303105DA
:10525000D8F58A819B816115710589F1FB019383E2
:105260008283FE0111C04081518102811381481760
:105270005907E0F04817590799F4109761F0129612
:105280000C93129713961C933296CF01DF91CF9116
:105290001F910F9108950093740710937507F4CF31
:1052A0002115310551F04217530738F0A901DB01F0
:1052B0009A01BD01DF01F801C1CFEF01F9CF909351
:1052C000750780937407CDCFFE01E20FF31F819322
:1052D00091932250310939832883D7CF20917207C7
:1052E00030917307232B41F4209124013091250143
:1052F000309373072093720720912201309123018C
:105300002115310541F42DB73EB74091260150914A
:105310002701241B350BE0917207F0917307E21708
:10532000F307A0F42E1B3F0B2817390778F0AC01C8
:105330004E5F5F4F2417350748F04E0F5F1F5093A5
:10534000730740937207819391939FCFF0E0E0E061
:105350009CCFCF93DF930097E9F0FC013297138243
:105360001282A0917407B0917507ED0130E020E042
:105370001097A1F420813181820F931F2091720731
:10538000309173072817390709F061C0F09373074C
:10539000E0937207DF91CF910895EA01CE17DF07FE
:1053A000E8F54A815B819E0141155105B1F7E9019C
:1053B000FB83EA8349915991C40FD51FEC17FD0770
:1053C00061F4808191810296840F951FE901998390
:1053D0008883828193819B838A83F0E0E0E0129648
:1053E0008D919C9113970097B9F52D913C91119750
:1053F000CD010296820F931F20917207309173079F
:105400002817390739F6309751F510927507109221
:105410007407B0937307A0937207BCCFD383C28382
:1054200040815181840F951FC817D90761F44E5FE1
:105430005F4F88819981480F591F518340838A812A
:105440009B81938382832115310509F0B0CFF093BE
:105450007507E09374079ECFFD01DC01C0CF138276
:105460001282D7CFB0E0A0E0E8E3FAE20C94B526D0
:105470008C01009751F4CB010E940D298C01C801C9
:10548000CDB7DEB7E0E10C94D126FC01E60FF71FA3
:105490009C0122503109E217F30708F49DC0D9019D
:1054A000CD91DC911197C617D70798F0C530D1057B
:1054B00030F3CE0104978617970708F3C61BD70B66
:1054C0002297C193D1936D937C93CF010E94A92918
:1054D000D6CF5B01AC1ABD0A4C018C0E9D1EA0916B
:1054E0007407B0917507512C412CF12CE12C1097C9
:1054F00031F580917207909173078815990509F02D
:105500005CC04616570608F058C080912201909161
:105510002301009741F48DB79EB740912601509129
:105520002701841B950BE817F90708F055C0F09385
:105530007307E0937207F90171836083A0CF8D91A7
:105540009C91119712966C90129713967C901397DA
:10555000A815B90559F56C0142E0C40ED11CCA1456
:10556000DB0420F1AC014A195B09DA0112961597A8
:1055700080F06282738251834083D9016D937C9362
:10558000E114F10471F0D7011396FC93EE93129796
:1055900076CF22968C0F9D1FF90191838083F301B2
:1055A000EFCFF0937507E093740769CF481659065B
:1055B00008F42C017D01D3019ACFCB010E940D2963
:1055C0007C01009749F0AE01B8010E94F42AC8019D
:1055D0000E94A929870153CF10E000E050CF81E05D
:1055E00090E0F8940C94042BFB01DC0102C00190C4
:1055F0000D9241505040D8F70895FB01DC01019015
:105600000D920020E1F7089511E0C6E1D1E004C059
:10561000FE010E942F272196C731D107C9F7F894C0
:02562000FFCFBA
:10562200FFFFFFFF00E1000000000000B407B40725
:10563200B407B407B4077C01E803D007FF00DC0518
:10564200DC05000076078000000000000AD79942BE
:105652000AD719420AD799418FC219419A9999409A
:105662009A9919409A99993F9A99193F0000000016
:1056720000008C4000000C4100008C4100000C42F4
:1056820000008C420000000023DB793D23DBF93D62
:1056920023DB793E23DBF93E00000000E00AD50A55
:1056A200AE0A00C1808100000004050607FFFF0367
:1056B200010200000000008F036203A70852036783
:1056C2000141015303000000001C097A08AA08687E
:1056D20009DB08B908CD0800000000120A88094E4B
:1056E2000A430A940A520A700A00000000190B00C9
:1056F200000000000B6E616E00696E66006F7666D8
:10570200003E000D0A00456E746572696E67204D99
:10571200414E4950554C4154494E473A20536561D8
:10572200726368696E6700456E746572696E6720A0
:105732004E415649474154494E473A205455524EDC
:10574200494E47004368616E67696E6720436F6E1A
:1057520074726F6C204D6F646520746F3A20005430
:10576200454C454F50002F496E697454696D6572FE
:10577200002F496E69744D6F746F722829002F498A
:105782006E6974456E6328290053657420477972E7
:105792006F20465320746F2000206D6470732F4C6D
:1057A20053422E00536574204779726F204F445242
:1057B20020746F200020487A2E00536574204163C4
:1057C2006320465320746F2000206D672F4C534294
:1057D2002E0053657420416363204F445220746F3E
:1057E20020002F7365747570282900457370333259
:1057F20020436F6E6E656374656400534554555063
:10580200004155544F00476F616C2069206E6F64F0
:10581200653A2000476F616C206A204E6F64653ADA
:105822002000456E746572696E67204E4156494785
:105832004154494E473A2049444C450041726D203B
:1058420052616973696E670041726D204C6F7765B2
:1058520072696E67004D697373656420616E2075AD
:10586200706461746520696E20526F626F743A3A97
:10587200526F626F744C6F6F7028292100456E74ED
:105882006572696E67204E415649474154494E47F9
:105892003A204C494E494E4700456E746572696E16
:1058A20067204E415649474154494E473A20505588
:1058B2004C4C555000456E746572696E67204D41BF
:1058C2004E4950554C4154494E473A2041707072EE
:1058D2006F616368696E67005472757374007461F6
:1058E200672078007461672E7A0052656327643AF4
:0258F2000900AB
:00000001FF
